{
  "_format": "hh-sol-artifact-1",
  "contractName": "LegendsOnTheBlock",
  "sourceName": "contracts/LegendsOnTheBlock.sol",
  "abi": [
    {
      "inputs": [
        {
          "internalType": "string",
          "name": "baseURI",
          "type": "string"
        }
      ],
      "stateMutability": "nonpayable",
      "type": "constructor"
    },
    {
      "anonymous": false,
      "inputs": [
        {
          "indexed": true,
          "internalType": "address",
          "name": "owner",
          "type": "address"
        },
        {
          "indexed": true,
          "internalType": "address",
          "name": "approved",
          "type": "address"
        },
        {
          "indexed": true,
          "internalType": "uint256",
          "name": "tokenId",
          "type": "uint256"
        }
      ],
      "name": "Approval",
      "type": "event"
    },
    {
      "anonymous": false,
      "inputs": [
        {
          "indexed": true,
          "internalType": "address",
          "name": "owner",
          "type": "address"
        },
        {
          "indexed": true,
          "internalType": "address",
          "name": "operator",
          "type": "address"
        },
        {
          "indexed": false,
          "internalType": "bool",
          "name": "approved",
          "type": "bool"
        }
      ],
      "name": "ApprovalForAll",
      "type": "event"
    },
    {
      "anonymous": false,
      "inputs": [
        {
          "indexed": true,
          "internalType": "address",
          "name": "previousOwner",
          "type": "address"
        },
        {
          "indexed": true,
          "internalType": "address",
          "name": "newOwner",
          "type": "address"
        }
      ],
      "name": "OwnershipTransferred",
      "type": "event"
    },
    {
      "anonymous": false,
      "inputs": [
        {
          "indexed": true,
          "internalType": "address",
          "name": "from",
          "type": "address"
        },
        {
          "indexed": true,
          "internalType": "address",
          "name": "to",
          "type": "address"
        },
        {
          "indexed": true,
          "internalType": "uint256",
          "name": "tokenId",
          "type": "uint256"
        }
      ],
      "name": "Transfer",
      "type": "event"
    },
    {
      "inputs": [],
      "name": "MAX_PER_MINT",
      "outputs": [
        {
          "internalType": "uint256",
          "name": "",
          "type": "uint256"
        }
      ],
      "stateMutability": "view",
      "type": "function"
    },
    {
      "inputs": [],
      "name": "MAX_SUPPLY",
      "outputs": [
        {
          "internalType": "uint256",
          "name": "",
          "type": "uint256"
        }
      ],
      "stateMutability": "view",
      "type": "function"
    },
    {
      "inputs": [
        {
          "internalType": "address",
          "name": "to",
          "type": "address"
        },
        {
          "internalType": "uint256",
          "name": "tokenId",
          "type": "uint256"
        }
      ],
      "name": "approve",
      "outputs": [],
      "stateMutability": "nonpayable",
      "type": "function"
    },
    {
      "inputs": [
        {
          "internalType": "address",
          "name": "owner",
          "type": "address"
        }
      ],
      "name": "balanceOf",
      "outputs": [
        {
          "internalType": "uint256",
          "name": "",
          "type": "uint256"
        }
      ],
      "stateMutability": "view",
      "type": "function"
    },
    {
      "inputs": [],
      "name": "baseTokenURI",
      "outputs": [
        {
          "internalType": "string",
          "name": "",
          "type": "string"
        }
      ],
      "stateMutability": "view",
      "type": "function"
    },
    {
      "inputs": [
        {
          "internalType": "uint256",
          "name": "tokenId",
          "type": "uint256"
        }
      ],
      "name": "getApproved",
      "outputs": [
        {
          "internalType": "address",
          "name": "",
          "type": "address"
        }
      ],
      "stateMutability": "view",
      "type": "function"
    },
    {
      "inputs": [
        {
          "internalType": "address",
          "name": "owner",
          "type": "address"
        },
        {
          "internalType": "address",
          "name": "operator",
          "type": "address"
        }
      ],
      "name": "isApprovedForAll",
      "outputs": [
        {
          "internalType": "bool",
          "name": "",
          "type": "bool"
        }
      ],
      "stateMutability": "view",
      "type": "function"
    },
    {
      "inputs": [
        {
          "internalType": "address",
          "name": "wAddress",
          "type": "address"
        }
      ],
      "name": "isFreeMintDone",
      "outputs": [
        {
          "internalType": "bool",
          "name": "",
          "type": "bool"
        }
      ],
      "stateMutability": "view",
      "type": "function"
    },
    {
      "inputs": [
        {
          "internalType": "uint256",
          "name": "_count",
          "type": "uint256"
        }
      ],
      "name": "mintNft",
      "outputs": [],
      "stateMutability": "payable",
      "type": "function"
    },
    {
      "inputs": [],
      "name": "name",
      "outputs": [
        {
          "internalType": "string",
          "name": "",
          "type": "string"
        }
      ],
      "stateMutability": "view",
      "type": "function"
    },
    {
      "inputs": [],
      "name": "owner",
      "outputs": [
        {
          "internalType": "address",
          "name": "",
          "type": "address"
        }
      ],
      "stateMutability": "view",
      "type": "function"
    },
    {
      "inputs": [
        {
          "internalType": "uint256",
          "name": "tokenId",
          "type": "uint256"
        }
      ],
      "name": "ownerOf",
      "outputs": [
        {
          "internalType": "address",
          "name": "",
          "type": "address"
        }
      ],
      "stateMutability": "view",
      "type": "function"
    },
    {
      "inputs": [],
      "name": "price",
      "outputs": [
        {
          "internalType": "uint256",
          "name": "",
          "type": "uint256"
        }
      ],
      "stateMutability": "view",
      "type": "function"
    },
    {
      "inputs": [],
      "name": "renounceOwnership",
      "outputs": [],
      "stateMutability": "nonpayable",
      "type": "function"
    },
    {
      "inputs": [
        {
          "internalType": "uint256",
          "name": "_count",
          "type": "uint256"
        },
        {
          "internalType": "address",
          "name": "_to",
          "type": "address"
        }
      ],
      "name": "reserveNfts",
      "outputs": [],
      "stateMutability": "nonpayable",
      "type": "function"
    },
    {
      "inputs": [
        {
          "internalType": "address",
          "name": "from",
          "type": "address"
        },
        {
          "internalType": "address",
          "name": "to",
          "type": "address"
        },
        {
          "internalType": "uint256",
          "name": "tokenId",
          "type": "uint256"
        }
      ],
      "name": "safeTransferFrom",
      "outputs": [],
      "stateMutability": "nonpayable",
      "type": "function"
    },
    {
      "inputs": [
        {
          "internalType": "address",
          "name": "from",
          "type": "address"
        },
        {
          "internalType": "address",
          "name": "to",
          "type": "address"
        },
        {
          "internalType": "uint256",
          "name": "tokenId",
          "type": "uint256"
        },
        {
          "internalType": "bytes",
          "name": "_data",
          "type": "bytes"
        }
      ],
      "name": "safeTransferFrom",
      "outputs": [],
      "stateMutability": "nonpayable",
      "type": "function"
    },
    {
      "inputs": [],
      "name": "saleIsActive",
      "outputs": [
        {
          "internalType": "bool",
          "name": "",
          "type": "bool"
        }
      ],
      "stateMutability": "view",
      "type": "function"
    },
    {
      "inputs": [
        {
          "internalType": "address",
          "name": "operator",
          "type": "address"
        },
        {
          "internalType": "bool",
          "name": "approved",
          "type": "bool"
        }
      ],
      "name": "setApprovalForAll",
      "outputs": [],
      "stateMutability": "nonpayable",
      "type": "function"
    },
    {
      "inputs": [
        {
          "internalType": "string",
          "name": "_baseTokenURI",
          "type": "string"
        }
      ],
      "name": "setBaseURI",
      "outputs": [],
      "stateMutability": "nonpayable",
      "type": "function"
    },
    {
      "inputs": [
        {
          "internalType": "bool",
          "name": "_activeState",
          "type": "bool"
        }
      ],
      "name": "setSaleState",
      "outputs": [],
      "stateMutability": "nonpayable",
      "type": "function"
    },
    {
      "inputs": [
        {
          "internalType": "bytes4",
          "name": "interfaceId",
          "type": "bytes4"
        }
      ],
      "name": "supportsInterface",
      "outputs": [
        {
          "internalType": "bool",
          "name": "",
          "type": "bool"
        }
      ],
      "stateMutability": "view",
      "type": "function"
    },
    {
      "inputs": [],
      "name": "symbol",
      "outputs": [
        {
          "internalType": "string",
          "name": "",
          "type": "string"
        }
      ],
      "stateMutability": "view",
      "type": "function"
    },
    {
      "inputs": [
        {
          "internalType": "uint256",
          "name": "index",
          "type": "uint256"
        }
      ],
      "name": "tokenByIndex",
      "outputs": [
        {
          "internalType": "uint256",
          "name": "",
          "type": "uint256"
        }
      ],
      "stateMutability": "view",
      "type": "function"
    },
    {
      "inputs": [
        {
          "internalType": "address",
          "name": "owner",
          "type": "address"
        },
        {
          "internalType": "uint256",
          "name": "index",
          "type": "uint256"
        }
      ],
      "name": "tokenOfOwnerByIndex",
      "outputs": [
        {
          "internalType": "uint256",
          "name": "",
          "type": "uint256"
        }
      ],
      "stateMutability": "view",
      "type": "function"
    },
    {
      "inputs": [
        {
          "internalType": "uint256",
          "name": "tokenId",
          "type": "uint256"
        }
      ],
      "name": "tokenURI",
      "outputs": [
        {
          "internalType": "string",
          "name": "",
          "type": "string"
        }
      ],
      "stateMutability": "view",
      "type": "function"
    },
    {
      "inputs": [
        {
          "internalType": "address",
          "name": "_owner",
          "type": "address"
        }
      ],
      "name": "tokensOfOwner",
      "outputs": [
        {
          "internalType": "uint256[]",
          "name": "",
          "type": "uint256[]"
        }
      ],
      "stateMutability": "view",
      "type": "function"
    },
    {
      "inputs": [],
      "name": "totalSupply",
      "outputs": [
        {
          "internalType": "uint256",
          "name": "",
          "type": "uint256"
        }
      ],
      "stateMutability": "view",
      "type": "function"
    },
    {
      "inputs": [
        {
          "internalType": "address",
          "name": "from",
          "type": "address"
        },
        {
          "internalType": "address",
          "name": "to",
          "type": "address"
        },
        {
          "internalType": "uint256",
          "name": "tokenId",
          "type": "uint256"
        }
      ],
      "name": "transferFrom",
      "outputs": [],
      "stateMutability": "nonpayable",
      "type": "function"
    },
    {
      "inputs": [
        {
          "internalType": "address",
          "name": "newOwner",
          "type": "address"
        }
      ],
      "name": "transferOwnership",
      "outputs": [],
      "stateMutability": "nonpayable",
      "type": "function"
    },
    {
      "inputs": [
        {
          "internalType": "uint256",
          "name": "_newPrice",
          "type": "uint256"
        }
      ],
      "name": "updatePrice",
      "outputs": [],
      "stateMutability": "nonpayable",
      "type": "function"
    },
    {
      "inputs": [],
      "name": "withdraw",
      "outputs": [],
      "stateMutability": "nonpayable",
      "type": "function"
    }
  ],
  "bytecode": "0x60806040526000600d60006101000a81548160ff021916908315150217905550669d07aa73128000600e553480156200003757600080fd5b5060405162004e7638038062004e7683398181016040528101906200005d9190620003f7565b6040518060400160405280601481526020017f4c6567656e6473204f6e2054686520426c6f636b0000000000000000000000008152506040518060400160405280600481526020017f4c4f544200000000000000000000000000000000000000000000000000000000815250620000e9620000dd6200013560201b60201c565b6200013d60201b60201c565b816001908051906020019062000101929190620002d5565b5080600290805190602001906200011a929190620002d5565b5050506200012e816200020160201b60201c565b506200062f565b600033905090565b60008060009054906101000a900473ffffffffffffffffffffffffffffffffffffffff169050816000806101000a81548173ffffffffffffffffffffffffffffffffffffffff021916908373ffffffffffffffffffffffffffffffffffffffff1602179055508173ffffffffffffffffffffffffffffffffffffffff168173ffffffffffffffffffffffffffffffffffffffff167f8be0079c531659141344cd1fd0a4f28419497f9722a3daafe3b4186f6b6457e060405160405180910390a35050565b620002116200013560201b60201c565b73ffffffffffffffffffffffffffffffffffffffff1662000237620002ac60201b60201c565b73ffffffffffffffffffffffffffffffffffffffff161462000290576040517f08c379a0000000000000000000000000000000000000000000000000000000008152600401620002879062000463565b60405180910390fd5b80600c9080519060200190620002a8929190620002d5565b5050565b60008060009054906101000a900473ffffffffffffffffffffffffffffffffffffffff16905090565b828054620002e3906200052b565b90600052602060002090601f01602090048101928262000307576000855562000353565b82601f106200032257805160ff191683800117855562000353565b8280016001018555821562000353579182015b828111156200035257825182559160200191906001019062000335565b5b50905062000362919062000366565b5090565b5b808211156200038157600081600090555060010162000367565b5090565b60006200039c6200039684620004ae565b62000485565b905082815260208101848484011115620003b557600080fd5b620003c2848285620004f5565b509392505050565b600082601f830112620003dc57600080fd5b8151620003ee84826020860162000385565b91505092915050565b6000602082840312156200040a57600080fd5b600082015167ffffffffffffffff8111156200042557600080fd5b6200043384828501620003ca565b91505092915050565b60006200044b602083620004e4565b9150620004588262000606565b602082019050919050565b600060208201905081810360008301526200047e816200043c565b9050919050565b600062000491620004a4565b90506200049f828262000561565b919050565b6000604051905090565b600067ffffffffffffffff821115620004cc57620004cb620005c6565b5b620004d782620005f5565b9050602081019050919050565b600082825260208201905092915050565b60005b8381101562000515578082015181840152602081019050620004f8565b8381111562000525576000848401525b50505050565b600060028204905060018216806200054457607f821691505b602082108114156200055b576200055a62000597565b5b50919050565b6200056c82620005f5565b810181811067ffffffffffffffff821117156200058e576200058d620005c6565b5b80604052505050565b7f4e487b7100000000000000000000000000000000000000000000000000000000600052602260045260246000fd5b7f4e487b7100000000000000000000000000000000000000000000000000000000600052604160045260246000fd5b6000601f19601f8301169050919050565b7f4f776e61626c653a2063616c6c6572206973206e6f7420746865206f776e6572600082015250565b614837806200063f6000396000f3fe6080604052600436106101e35760003560e01c806370a0823111610102578063b88d4fde11610095578063d547cfb711610064578063d547cfb7146106f5578063e985e9c514610720578063eb8d24441461075d578063f2fde38b14610788576101e3565b8063b88d4fde1461063d578063ba9283d714610666578063c4e370951461068f578063c87b56dd146106b8576101e3565b80638da5cb5b116100d15780638da5cb5b1461059357806395d89b41146105be578063a035b1fe146105e9578063a22cb46514610614576101e3565b806370a08231146104d9578063715018a6146105165780638462151c1461052d5780638d6cc56d1461056a576101e3565b80632f745c591161017a5780634ab40e9e116101495780634ab40e9e146103f95780634f6ccce71461043657806355f804b3146104735780636352211e1461049c576101e3565b80632f745c591461035157806332cb6b0c1461038e5780633ccfd60b146103b957806342842e0e146103d0576101e3565b806309d42b30116101b657806309d42b30146102b65780630d730acc146102e157806318160ddd146102fd57806323b872dd14610328576101e3565b806301ffc9a7146101e857806306fdde0314610225578063081812fc14610250578063095ea7b31461028d575b600080fd5b3480156101f457600080fd5b5061020f600480360381019061020a9190613279565b6107b1565b60405161021c9190613916565b60405180910390f35b34801561023157600080fd5b5061023a61082b565b6040516102479190613931565b60405180910390f35b34801561025c57600080fd5b506102776004803603810190610272919061330c565b6108bd565b604051610284919061388d565b60405180910390f35b34801561029957600080fd5b506102b460048036038101906102af9190613214565b610942565b005b3480156102c257600080fd5b506102cb610a5a565b6040516102d89190613ca3565b60405180910390f35b6102fb60048036038101906102f6919061330c565b610a5f565b005b34801561030957600080fd5b50610312610d3d565b60405161031f9190613ca3565b60405180910390f35b34801561033457600080fd5b5061034f600480360381019061034a919061310e565b610d4a565b005b34801561035d57600080fd5b5061037860048036038101906103739190613214565b610daa565b6040516103859190613ca3565b60405180910390f35b34801561039a57600080fd5b506103a3610e4f565b6040516103b09190613ca3565b60405180910390f35b3480156103c557600080fd5b506103ce610e55565b005b3480156103dc57600080fd5b506103f760048036038101906103f2919061310e565b610fc9565b005b34801561040557600080fd5b50610420600480360381019061041b91906130a9565b610fe9565b60405161042d9190613916565b60405180910390f35b34801561044257600080fd5b5061045d6004803603810190610458919061330c565b61103f565b60405161046a9190613ca3565b60405180910390f35b34801561047f57600080fd5b5061049a600480360381019061049591906132cb565b6110d6565b005b3480156104a857600080fd5b506104c360048036038101906104be919061330c565b61116c565b6040516104d0919061388d565b60405180910390f35b3480156104e557600080fd5b5061050060048036038101906104fb91906130a9565b61121e565b60405161050d9190613ca3565b60405180910390f35b34801561052257600080fd5b5061052b6112d6565b005b34801561053957600080fd5b50610554600480360381019061054f91906130a9565b61135e565b60405161056191906138f4565b60405180910390f35b34801561057657600080fd5b50610591600480360381019061058c919061330c565b611458565b005b34801561059f57600080fd5b506105a86114de565b6040516105b5919061388d565b60405180910390f35b3480156105ca57600080fd5b506105d3611507565b6040516105e09190613931565b60405180910390f35b3480156105f557600080fd5b506105fe611599565b60405161060b9190613ca3565b60405180910390f35b34801561062057600080fd5b5061063b600480360381019061063691906131d8565b61159f565b005b34801561064957600080fd5b50610664600480360381019061065f919061315d565b6115b5565b005b34801561067257600080fd5b5061068d60048036038101906106889190613335565b611617565b005b34801561069b57600080fd5b506106b660048036038101906106b19190613250565b611724565b005b3480156106c457600080fd5b506106df60048036038101906106da919061330c565b6117bd565b6040516106ec9190613931565b60405180910390f35b34801561070157600080fd5b5061070a611864565b6040516107179190613931565b60405180910390f35b34801561072c57600080fd5b50610747600480360381019061074291906130d2565b6118f2565b6040516107549190613916565b60405180910390f35b34801561076957600080fd5b50610772611986565b60405161077f9190613916565b60405180910390f35b34801561079457600080fd5b506107af60048036038101906107aa91906130a9565b611999565b005b60007f780e9d63000000000000000000000000000000000000000000000000000000007bffffffffffffffffffffffffffffffffffffffffffffffffffffffff1916827bffffffffffffffffffffffffffffffffffffffffffffffffffffffff19161480610824575061082382611a91565b5b9050919050565b60606001805461083a90613f97565b80601f016020809104026020016040519081016040528092919081815260200182805461086690613f97565b80156108b35780601f10610888576101008083540402835291602001916108b3565b820191906000526020600020905b81548152906001019060200180831161089657829003601f168201915b5050505050905090565b60006108c882611b73565b610907576040517f08c379a00000000000000000000000000000000000000000000000000000000081526004016108fe90613b83565b60405180910390fd5b6005600083815260200190815260200160002060009054906101000a900473ffffffffffffffffffffffffffffffffffffffff169050919050565b600061094d8261116c565b90508073ffffffffffffffffffffffffffffffffffffffff168373ffffffffffffffffffffffffffffffffffffffff1614156109be576040517f08c379a00000000000000000000000000000000000000000000000000000000081526004016109b590613c03565b60405180910390fd5b8073ffffffffffffffffffffffffffffffffffffffff166109dd611bdf565b73ffffffffffffffffffffffffffffffffffffffff161480610a0c5750610a0b81610a06611bdf565b6118f2565b5b610a4b576040517f08c379a0000000000000000000000000000000000000000000000000000000008152600401610a4290613ae3565b60405180910390fd5b610a558383611be7565b505050565b600381565b6000610a6b600b611ca0565b90506000600f60003373ffffffffffffffffffffffffffffffffffffffff1673ffffffffffffffffffffffffffffffffffffffff16815260200190815260200160002060009054906101000a900460ff1615610add57610ad683600e54611cae90919063ffffffff16565b9050610b59565b610afe600184610aed9190613ead565b600e54611cae90919063ffffffff16565b90506001600f60003373ffffffffffffffffffffffffffffffffffffffff1673ffffffffffffffffffffffffffffffffffffffff16815260200190815260200160002060006101000a81548160ff0219169083151502179055505b610b986040518060400160405280600981526020017f436f73742069733a20000000000000000000000000000000000000000000000081525082611cc4565b610bd76040518060400160405280600981526020017f457468652069733a20000000000000000000000000000000000000000000000081525034611cc4565b6104ce610bed8484611d6090919063ffffffff16565b1115610c2e576040517f08c379a0000000000000000000000000000000000000000000000000000000008152600401610c2590613a83565b60405180910390fd5b600083118015610c3f575060038311155b610c7e576040517f08c379a0000000000000000000000000000000000000000000000000000000008152600401610c7590613aa3565b60405180910390fd5b600d60009054906101000a900460ff16610ccd576040517f08c379a0000000000000000000000000000000000000000000000000000000008152600401610cc490613c83565b60405180910390fd5b80341015610d10576040517f08c379a0000000000000000000000000000000000000000000000000000000008152600401610d0790613a63565b60405180910390fd5b60005b83811015610d3757610d2433611d76565b8080610d2f90613ffa565b915050610d13565b50505050565b6000600980549050905090565b610d5b610d55611bdf565b82611d9c565b610d9a576040517f08c379a0000000000000000000000000000000000000000000000000000000008152600401610d9190613c43565b60405180910390fd5b610da5838383611e7a565b505050565b6000610db58361121e565b8210610df6576040517f08c379a0000000000000000000000000000000000000000000000000000000008152600401610ded906139a3565b60405180910390fd5b600760008473ffffffffffffffffffffffffffffffffffffffff1673ffffffffffffffffffffffffffffffffffffffff168152602001908152602001600020600083815260200190815260200160002054905092915050565b6104ce81565b610e5d611bdf565b73ffffffffffffffffffffffffffffffffffffffff16610e7b6114de565b73ffffffffffffffffffffffffffffffffffffffff1614610ed1576040517f08c379a0000000000000000000000000000000000000000000000000000000008152600401610ec890613ba3565b60405180910390fd5b600047905060008111610f19576040517f08c379a0000000000000000000000000000000000000000000000000000000008152600401610f1090613b63565b60405180910390fd5b60003373ffffffffffffffffffffffffffffffffffffffff1682604051610f3f90613878565b60006040518083038185875af1925050503d8060008114610f7c576040519150601f19603f3d011682016040523d82523d6000602084013e610f81565b606091505b5050905080610fc5576040517f08c379a0000000000000000000000000000000000000000000000000000000008152600401610fbc90613c23565b60405180910390fd5b5050565b610fe4838383604051806020016040528060008152506115b5565b505050565b6000600f60008373ffffffffffffffffffffffffffffffffffffffff1673ffffffffffffffffffffffffffffffffffffffff16815260200190815260200160002060009054906101000a900460ff169050919050565b6000611049610d3d565b821061108a576040517f08c379a000000000000000000000000000000000000000000000000000000000815260040161108190613c63565b60405180910390fd5b600982815481106110c4577f4e487b7100000000000000000000000000000000000000000000000000000000600052603260045260246000fd5b90600052602060002001549050919050565b6110de611bdf565b73ffffffffffffffffffffffffffffffffffffffff166110fc6114de565b73ffffffffffffffffffffffffffffffffffffffff1614611152576040517f08c379a000000000000000000000000000000000000000000000000000000000815260040161114990613ba3565b60405180910390fd5b80600c9080519060200190611168929190612ecd565b5050565b6000806003600084815260200190815260200160002060009054906101000a900473ffffffffffffffffffffffffffffffffffffffff169050600073ffffffffffffffffffffffffffffffffffffffff168173ffffffffffffffffffffffffffffffffffffffff161415611215576040517f08c379a000000000000000000000000000000000000000000000000000000000815260040161120c90613b23565b60405180910390fd5b80915050919050565b60008073ffffffffffffffffffffffffffffffffffffffff168273ffffffffffffffffffffffffffffffffffffffff16141561128f576040517f08c379a000000000000000000000000000000000000000000000000000000000815260040161128690613b03565b60405180910390fd5b600460008373ffffffffffffffffffffffffffffffffffffffff1673ffffffffffffffffffffffffffffffffffffffff168152602001908152602001600020549050919050565b6112de611bdf565b73ffffffffffffffffffffffffffffffffffffffff166112fc6114de565b73ffffffffffffffffffffffffffffffffffffffff1614611352576040517f08c379a000000000000000000000000000000000000000000000000000000000815260040161134990613ba3565b60405180910390fd5b61135c60006120d6565b565b6060600061136b8361121e565b905060008167ffffffffffffffff8111156113af577f4e487b7100000000000000000000000000000000000000000000000000000000600052604160045260246000fd5b6040519080825280602002602001820160405280156113dd5781602001602082028036833780820191505090505b50905060005b8281101561144d576113f58582610daa565b82828151811061142e577f4e487b7100000000000000000000000000000000000000000000000000000000600052603260045260246000fd5b602002602001018181525050808061144590613ffa565b9150506113e3565b508092505050919050565b611460611bdf565b73ffffffffffffffffffffffffffffffffffffffff1661147e6114de565b73ffffffffffffffffffffffffffffffffffffffff16146114d4576040517f08c379a00000000000000000000000000000000000000000000000000000000081526004016114cb90613ba3565b60405180910390fd5b80600e8190555050565b60008060009054906101000a900473ffffffffffffffffffffffffffffffffffffffff16905090565b60606002805461151690613f97565b80601f016020809104026020016040519081016040528092919081815260200182805461154290613f97565b801561158f5780601f106115645761010080835404028352916020019161158f565b820191906000526020600020905b81548152906001019060200180831161157257829003601f168201915b5050505050905090565b600e5481565b6115b16115aa611bdf565b838361219a565b5050565b6115c66115c0611bdf565b83611d9c565b611605576040517f08c379a00000000000000000000000000000000000000000000000000000000081526004016115fc90613c43565b60405180910390fd5b61161184848484612307565b50505050565b61161f611bdf565b73ffffffffffffffffffffffffffffffffffffffff1661163d6114de565b73ffffffffffffffffffffffffffffffffffffffff1614611693576040517f08c379a000000000000000000000000000000000000000000000000000000000815260040161168a90613ba3565b60405180910390fd5b600061169f600b611ca0565b90506104ce6116b78483611d6090919063ffffffff16565b106116f7576040517f08c379a00000000000000000000000000000000000000000000000000000000081526004016116ee90613983565b60405180910390fd5b60005b8381101561171e5761170b83611d76565b808061171690613ffa565b9150506116fa565b50505050565b61172c611bdf565b73ffffffffffffffffffffffffffffffffffffffff1661174a6114de565b73ffffffffffffffffffffffffffffffffffffffff16146117a0576040517f08c379a000000000000000000000000000000000000000000000000000000000815260040161179790613ba3565b60405180910390fd5b80600d60006101000a81548160ff02191690831515021790555050565b60606117c882611b73565b611807576040517f08c379a00000000000000000000000000000000000000000000000000000000081526004016117fe90613be3565b60405180910390fd5b6000611811612363565b90506000815111611831576040518060200160405280600081525061185c565b8061183b846123f5565b60405160200161184c929190613854565b6040516020818303038152906040525b915050919050565b600c805461187190613f97565b80601f016020809104026020016040519081016040528092919081815260200182805461189d90613f97565b80156118ea5780601f106118bf576101008083540402835291602001916118ea565b820191906000526020600020905b8154815290600101906020018083116118cd57829003601f168201915b505050505081565b6000600660008473ffffffffffffffffffffffffffffffffffffffff1673ffffffffffffffffffffffffffffffffffffffff16815260200190815260200160002060008373ffffffffffffffffffffffffffffffffffffffff1673ffffffffffffffffffffffffffffffffffffffff16815260200190815260200160002060009054906101000a900460ff16905092915050565b600d60009054906101000a900460ff1681565b6119a1611bdf565b73ffffffffffffffffffffffffffffffffffffffff166119bf6114de565b73ffffffffffffffffffffffffffffffffffffffff1614611a15576040517f08c379a0000000000000000000000000000000000000000000000000000000008152600401611a0c90613ba3565b60405180910390fd5b600073ffffffffffffffffffffffffffffffffffffffff168173ffffffffffffffffffffffffffffffffffffffff161415611a85576040517f08c379a0000000000000000000000000000000000000000000000000000000008152600401611a7c906139e3565b60405180910390fd5b611a8e816120d6565b50565b60007f80ac58cd000000000000000000000000000000000000000000000000000000007bffffffffffffffffffffffffffffffffffffffffffffffffffffffff1916827bffffffffffffffffffffffffffffffffffffffffffffffffffffffff19161480611b5c57507f5b5e139f000000000000000000000000000000000000000000000000000000007bffffffffffffffffffffffffffffffffffffffffffffffffffffffff1916827bffffffffffffffffffffffffffffffffffffffffffffffffffffffff1916145b80611b6c5750611b6b826125a2565b5b9050919050565b60008073ffffffffffffffffffffffffffffffffffffffff166003600084815260200190815260200160002060009054906101000a900473ffffffffffffffffffffffffffffffffffffffff1673ffffffffffffffffffffffffffffffffffffffff1614159050919050565b600033905090565b816005600083815260200190815260200160002060006101000a81548173ffffffffffffffffffffffffffffffffffffffff021916908373ffffffffffffffffffffffffffffffffffffffff160217905550808273ffffffffffffffffffffffffffffffffffffffff16611c5a8361116c565b73ffffffffffffffffffffffffffffffffffffffff167f8c5be1e5ebec7d5bd14f71427d1e84f3dd0314c0f7b2291e5b200ac8c7c3b92560405160405180910390a45050565b600081600001549050919050565b60008183611cbc9190613e53565b905092915050565b611d5c8282604051602401611cda929190613953565b6040516020818303038152906040527f9710a9d0000000000000000000000000000000000000000000000000000000007bffffffffffffffffffffffffffffffffffffffffffffffffffffffff19166020820180517bffffffffffffffffffffffffffffffffffffffffffffffffffffffff838183161783525050505061260c565b5050565b60008183611d6e9190613dcc565b905092915050565b611d80600b612635565b6000611d8c600b611ca0565b9050611d98828261264b565b5050565b6000611da782611b73565b611de6576040517f08c379a0000000000000000000000000000000000000000000000000000000008152600401611ddd90613ac3565b60405180910390fd5b6000611df18361116c565b90508073ffffffffffffffffffffffffffffffffffffffff168473ffffffffffffffffffffffffffffffffffffffff161480611e6057508373ffffffffffffffffffffffffffffffffffffffff16611e48846108bd565b73ffffffffffffffffffffffffffffffffffffffff16145b80611e715750611e7081856118f2565b5b91505092915050565b8273ffffffffffffffffffffffffffffffffffffffff16611e9a8261116c565b73ffffffffffffffffffffffffffffffffffffffff1614611ef0576040517f08c379a0000000000000000000000000000000000000000000000000000000008152600401611ee790613bc3565b60405180910390fd5b600073ffffffffffffffffffffffffffffffffffffffff168273ffffffffffffffffffffffffffffffffffffffff161415611f60576040517f08c379a0000000000000000000000000000000000000000000000000000000008152600401611f5790613a23565b60405180910390fd5b611f6b838383612669565b611f76600082611be7565b6001600460008573ffffffffffffffffffffffffffffffffffffffff1673ffffffffffffffffffffffffffffffffffffffff1681526020019081526020016000206000828254611fc69190613ead565b925050819055506001600460008473ffffffffffffffffffffffffffffffffffffffff1673ffffffffffffffffffffffffffffffffffffffff168152602001908152602001600020600082825461201d9190613dcc565b92505081905550816003600083815260200190815260200160002060006101000a81548173ffffffffffffffffffffffffffffffffffffffff021916908373ffffffffffffffffffffffffffffffffffffffff160217905550808273ffffffffffffffffffffffffffffffffffffffff168473ffffffffffffffffffffffffffffffffffffffff167fddf252ad1be2c89b69c2b068fc378daa952ba7f163c4a11628f55a4df523b3ef60405160405180910390a4505050565b60008060009054906101000a900473ffffffffffffffffffffffffffffffffffffffff169050816000806101000a81548173ffffffffffffffffffffffffffffffffffffffff021916908373ffffffffffffffffffffffffffffffffffffffff1602179055508173ffffffffffffffffffffffffffffffffffffffff168173ffffffffffffffffffffffffffffffffffffffff167f8be0079c531659141344cd1fd0a4f28419497f9722a3daafe3b4186f6b6457e060405160405180910390a35050565b8173ffffffffffffffffffffffffffffffffffffffff168373ffffffffffffffffffffffffffffffffffffffff161415612209576040517f08c379a000000000000000000000000000000000000000000000000000000000815260040161220090613a43565b60405180910390fd5b80600660008573ffffffffffffffffffffffffffffffffffffffff1673ffffffffffffffffffffffffffffffffffffffff16815260200190815260200160002060008473ffffffffffffffffffffffffffffffffffffffff1673ffffffffffffffffffffffffffffffffffffffff16815260200190815260200160002060006101000a81548160ff0219169083151502179055508173ffffffffffffffffffffffffffffffffffffffff168373ffffffffffffffffffffffffffffffffffffffff167f17307eab39ab6107e8899845ad3d59bd9653f200f220920489ca2b5937696c31836040516122fa9190613916565b60405180910390a3505050565b612312848484611e7a565b61231e8484848461277d565b61235d576040517f08c379a0000000000000000000000000000000000000000000000000000000008152600401612354906139c3565b60405180910390fd5b50505050565b6060600c805461237290613f97565b80601f016020809104026020016040519081016040528092919081815260200182805461239e90613f97565b80156123eb5780601f106123c0576101008083540402835291602001916123eb565b820191906000526020600020905b8154815290600101906020018083116123ce57829003601f168201915b5050505050905090565b6060600082141561243d576040518060400160405280600181526020017f3000000000000000000000000000000000000000000000000000000000000000815250905061259d565b600082905060005b6000821461246f57808061245890613ffa565b915050600a826124689190613e22565b9150612445565b60008167ffffffffffffffff8111156124b1577f4e487b7100000000000000000000000000000000000000000000000000000000600052604160045260246000fd5b6040519080825280601f01601f1916602001820160405280156124e35781602001600182028036833780820191505090505b5090505b60008514612596576001826124fc9190613ead565b9150600a8561250b9190614043565b60306125179190613dcc565b60f81b818381518110612553577f4e487b7100000000000000000000000000000000000000000000000000000000600052603260045260246000fd5b60200101907effffffffffffffffffffffffffffffffffffffffffffffffffffffffffffff1916908160001a905350600a8561258f9190613e22565b94506124e7565b8093505050505b919050565b60007f01ffc9a7000000000000000000000000000000000000000000000000000000007bffffffffffffffffffffffffffffffffffffffffffffffffffffffff1916827bffffffffffffffffffffffffffffffffffffffffffffffffffffffff1916149050919050565b60008151905060006a636f6e736f6c652e6c6f679050602083016000808483855afa5050505050565b6001816000016000828254019250508190555050565b612665828260405180602001604052806000815250612914565b5050565b61267483838361296f565b600073ffffffffffffffffffffffffffffffffffffffff168373ffffffffffffffffffffffffffffffffffffffff1614156126b7576126b281612974565b6126f6565b8173ffffffffffffffffffffffffffffffffffffffff168373ffffffffffffffffffffffffffffffffffffffff16146126f5576126f483826129bd565b5b5b600073ffffffffffffffffffffffffffffffffffffffff168273ffffffffffffffffffffffffffffffffffffffff1614156127395761273481612b2a565b612778565b8273ffffffffffffffffffffffffffffffffffffffff168273ffffffffffffffffffffffffffffffffffffffff1614612777576127768282612c6d565b5b5b505050565b600061279e8473ffffffffffffffffffffffffffffffffffffffff16612cec565b15612907578373ffffffffffffffffffffffffffffffffffffffff1663150b7a026127c7611bdf565b8786866040518563ffffffff1660e01b81526004016127e994939291906138a8565b602060405180830381600087803b15801561280357600080fd5b505af192505050801561283457506040513d601f19601f8201168201806040525081019061283191906132a2565b60015b6128b7573d8060008114612864576040519150601f19603f3d011682016040523d82523d6000602084013e612869565b606091505b506000815114156128af576040517f08c379a00000000000000000000000000000000000000000000000000000000081526004016128a6906139c3565b60405180910390fd5b805181602001fd5b63150b7a0260e01b7bffffffffffffffffffffffffffffffffffffffffffffffffffffffff1916817bffffffffffffffffffffffffffffffffffffffffffffffffffffffff19161491505061290c565b600190505b949350505050565b61291e8383612cff565b61292b600084848461277d565b61296a576040517f08c379a0000000000000000000000000000000000000000000000000000000008152600401612961906139c3565b60405180910390fd5b505050565b505050565b600980549050600a600083815260200190815260200160002081905550600981908060018154018082558091505060019003906000526020600020016000909190919091505550565b600060016129ca8461121e565b6129d49190613ead565b9050600060086000848152602001908152602001600020549050818114612ab9576000600760008673ffffffffffffffffffffffffffffffffffffffff1673ffffffffffffffffffffffffffffffffffffffff168152602001908152602001600020600084815260200190815260200160002054905080600760008773ffffffffffffffffffffffffffffffffffffffff1673ffffffffffffffffffffffffffffffffffffffff168152602001908152602001600020600084815260200190815260200160002081905550816008600083815260200190815260200160002081905550505b6008600084815260200190815260200160002060009055600760008573ffffffffffffffffffffffffffffffffffffffff1673ffffffffffffffffffffffffffffffffffffffff16815260200190815260200160002060008381526020019081526020016000206000905550505050565b60006001600980549050612b3e9190613ead565b90506000600a6000848152602001908152602001600020549050600060098381548110612b94577f4e487b7100000000000000000000000000000000000000000000000000000000600052603260045260246000fd5b906000526020600020015490508060098381548110612bdc577f4e487b7100000000000000000000000000000000000000000000000000000000600052603260045260246000fd5b906000526020600020018190555081600a600083815260200190815260200160002081905550600a6000858152602001908152602001600020600090556009805480612c51577f4e487b7100000000000000000000000000000000000000000000000000000000600052603160045260246000fd5b6001900381819060005260206000200160009055905550505050565b6000612c788361121e565b905081600760008573ffffffffffffffffffffffffffffffffffffffff1673ffffffffffffffffffffffffffffffffffffffff168152602001908152602001600020600083815260200190815260200160002081905550806008600084815260200190815260200160002081905550505050565b600080823b905060008111915050919050565b600073ffffffffffffffffffffffffffffffffffffffff168273ffffffffffffffffffffffffffffffffffffffff161415612d6f576040517f08c379a0000000000000000000000000000000000000000000000000000000008152600401612d6690613b43565b60405180910390fd5b612d7881611b73565b15612db8576040517f08c379a0000000000000000000000000000000000000000000000000000000008152600401612daf90613a03565b60405180910390fd5b612dc460008383612669565b6001600460008473ffffffffffffffffffffffffffffffffffffffff1673ffffffffffffffffffffffffffffffffffffffff1681526020019081526020016000206000828254612e149190613dcc565b92505081905550816003600083815260200190815260200160002060006101000a81548173ffffffffffffffffffffffffffffffffffffffff021916908373ffffffffffffffffffffffffffffffffffffffff160217905550808273ffffffffffffffffffffffffffffffffffffffff16600073ffffffffffffffffffffffffffffffffffffffff167fddf252ad1be2c89b69c2b068fc378daa952ba7f163c4a11628f55a4df523b3ef60405160405180910390a45050565b828054612ed990613f97565b90600052602060002090601f016020900481019282612efb5760008555612f42565b82601f10612f1457805160ff1916838001178555612f42565b82800160010185558215612f42579182015b82811115612f41578251825591602001919060010190612f26565b5b509050612f4f9190612f53565b5090565b5b80821115612f6c576000816000905550600101612f54565b5090565b6000612f83612f7e84613ce3565b613cbe565b905082815260208101848484011115612f9b57600080fd5b612fa6848285613f55565b509392505050565b6000612fc1612fbc84613d14565b613cbe565b905082815260208101848484011115612fd957600080fd5b612fe4848285613f55565b509392505050565b600081359050612ffb816147a5565b92915050565b600081359050613010816147bc565b92915050565b600081359050613025816147d3565b92915050565b60008151905061303a816147d3565b92915050565b600082601f83011261305157600080fd5b8135613061848260208601612f70565b91505092915050565b600082601f83011261307b57600080fd5b813561308b848260208601612fae565b91505092915050565b6000813590506130a3816147ea565b92915050565b6000602082840312156130bb57600080fd5b60006130c984828501612fec565b91505092915050565b600080604083850312156130e557600080fd5b60006130f385828601612fec565b925050602061310485828601612fec565b9150509250929050565b60008060006060848603121561312357600080fd5b600061313186828701612fec565b935050602061314286828701612fec565b925050604061315386828701613094565b9150509250925092565b6000806000806080858703121561317357600080fd5b600061318187828801612fec565b945050602061319287828801612fec565b93505060406131a387828801613094565b925050606085013567ffffffffffffffff8111156131c057600080fd5b6131cc87828801613040565b91505092959194509250565b600080604083850312156131eb57600080fd5b60006131f985828601612fec565b925050602061320a85828601613001565b9150509250929050565b6000806040838503121561322757600080fd5b600061323585828601612fec565b925050602061324685828601613094565b9150509250929050565b60006020828403121561326257600080fd5b600061327084828501613001565b91505092915050565b60006020828403121561328b57600080fd5b600061329984828501613016565b91505092915050565b6000602082840312156132b457600080fd5b60006132c28482850161302b565b91505092915050565b6000602082840312156132dd57600080fd5b600082013567ffffffffffffffff8111156132f757600080fd5b6133038482850161306a565b91505092915050565b60006020828403121561331e57600080fd5b600061332c84828501613094565b91505092915050565b6000806040838503121561334857600080fd5b600061335685828601613094565b925050602061336785828601612fec565b9150509250929050565b600061337d8383613836565b60208301905092915050565b61339281613ee1565b82525050565b60006133a382613d55565b6133ad8185613d83565b93506133b883613d45565b8060005b838110156133e95781516133d08882613371565b97506133db83613d76565b9250506001810190506133bc565b5085935050505092915050565b6133ff81613ef3565b82525050565b600061341082613d60565b61341a8185613d94565b935061342a818560208601613f64565b61343381614130565b840191505092915050565b600061344982613d6b565b6134538185613db0565b9350613463818560208601613f64565b61346c81614130565b840191505092915050565b600061348282613d6b565b61348c8185613dc1565b935061349c818560208601613f64565b80840191505092915050565b60006134b5601f83613db0565b91506134c082614141565b602082019050919050565b60006134d8602b83613db0565b91506134e38261416a565b604082019050919050565b60006134fb603283613db0565b9150613506826141b9565b604082019050919050565b600061351e602683613db0565b915061352982614208565b604082019050919050565b6000613541601c83613db0565b915061354c82614257565b602082019050919050565b6000613564602483613db0565b915061356f82614280565b604082019050919050565b6000613587601983613db0565b9150613592826142cf565b602082019050919050565b60006135aa602283613db0565b91506135b5826142f8565b604082019050919050565b60006135cd601583613db0565b91506135d882614347565b602082019050919050565b60006135f0602583613db0565b91506135fb82614370565b604082019050919050565b6000613613602c83613db0565b915061361e826143bf565b604082019050919050565b6000613636603883613db0565b91506136418261440e565b604082019050919050565b6000613659602a83613db0565b91506136648261445d565b604082019050919050565b600061367c602983613db0565b9150613687826144ac565b604082019050919050565b600061369f602083613db0565b91506136aa826144fb565b602082019050919050565b60006136c2601983613db0565b91506136cd82614524565b602082019050919050565b60006136e5602c83613db0565b91506136f08261454d565b604082019050919050565b6000613708602083613db0565b91506137138261459c565b602082019050919050565b600061372b602983613db0565b9150613736826145c5565b604082019050919050565b600061374e602f83613db0565b915061375982614614565b604082019050919050565b6000613771602183613db0565b915061377c82614663565b604082019050919050565b6000613794600083613da5565b915061379f826146b2565b600082019050919050565b60006137b7601083613db0565b91506137c2826146b5565b602082019050919050565b60006137da603183613db0565b91506137e5826146de565b604082019050919050565b60006137fd602c83613db0565b91506138088261472d565b604082019050919050565b6000613820601d83613db0565b915061382b8261477c565b602082019050919050565b61383f81613f4b565b82525050565b61384e81613f4b565b82525050565b60006138608285613477565b915061386c8284613477565b91508190509392505050565b600061388382613787565b9150819050919050565b60006020820190506138a26000830184613389565b92915050565b60006080820190506138bd6000830187613389565b6138ca6020830186613389565b6138d76040830185613845565b81810360608301526138e98184613405565b905095945050505050565b6000602082019050818103600083015261390e8184613398565b905092915050565b600060208201905061392b60008301846133f6565b92915050565b6000602082019050818103600083015261394b818461343e565b905092915050565b6000604082019050818103600083015261396d818561343e565b905061397c6020830184613845565b9392505050565b6000602082019050818103600083015261399c816134a8565b9050919050565b600060208201905081810360008301526139bc816134cb565b9050919050565b600060208201905081810360008301526139dc816134ee565b9050919050565b600060208201905081810360008301526139fc81613511565b9050919050565b60006020820190508181036000830152613a1c81613534565b9050919050565b60006020820190508181036000830152613a3c81613557565b9050919050565b60006020820190508181036000830152613a5c8161357a565b9050919050565b60006020820190508181036000830152613a7c8161359d565b9050919050565b60006020820190508181036000830152613a9c816135c0565b9050919050565b60006020820190508181036000830152613abc816135e3565b9050919050565b60006020820190508181036000830152613adc81613606565b9050919050565b60006020820190508181036000830152613afc81613629565b9050919050565b60006020820190508181036000830152613b1c8161364c565b9050919050565b60006020820190508181036000830152613b3c8161366f565b9050919050565b60006020820190508181036000830152613b5c81613692565b9050919050565b60006020820190508181036000830152613b7c816136b5565b9050919050565b60006020820190508181036000830152613b9c816136d8565b9050919050565b60006020820190508181036000830152613bbc816136fb565b9050919050565b60006020820190508181036000830152613bdc8161371e565b9050919050565b60006020820190508181036000830152613bfc81613741565b9050919050565b60006020820190508181036000830152613c1c81613764565b9050919050565b60006020820190508181036000830152613c3c816137aa565b9050919050565b60006020820190508181036000830152613c5c816137cd565b9050919050565b60006020820190508181036000830152613c7c816137f0565b9050919050565b60006020820190508181036000830152613c9c81613813565b9050919050565b6000602082019050613cb86000830184613845565b92915050565b6000613cc8613cd9565b9050613cd48282613fc9565b919050565b6000604051905090565b600067ffffffffffffffff821115613cfe57613cfd614101565b5b613d0782614130565b9050602081019050919050565b600067ffffffffffffffff821115613d2f57613d2e614101565b5b613d3882614130565b9050602081019050919050565b6000819050602082019050919050565b600081519050919050565b600081519050919050565b600081519050919050565b6000602082019050919050565b600082825260208201905092915050565b600082825260208201905092915050565b600081905092915050565b600082825260208201905092915050565b600081905092915050565b6000613dd782613f4b565b9150613de283613f4b565b9250827fffffffffffffffffffffffffffffffffffffffffffffffffffffffffffffffff03821115613e1757613e16614074565b5b828201905092915050565b6000613e2d82613f4b565b9150613e3883613f4b565b925082613e4857613e476140a3565b5b828204905092915050565b6000613e5e82613f4b565b9150613e6983613f4b565b9250817fffffffffffffffffffffffffffffffffffffffffffffffffffffffffffffffff0483118215151615613ea257613ea1614074565b5b828202905092915050565b6000613eb882613f4b565b9150613ec383613f4b565b925082821015613ed657613ed5614074565b5b828203905092915050565b6000613eec82613f2b565b9050919050565b60008115159050919050565b60007fffffffff0000000000000000000000000000000000000000000000000000000082169050919050565b600073ffffffffffffffffffffffffffffffffffffffff82169050919050565b6000819050919050565b82818337600083830152505050565b60005b83811015613f82578082015181840152602081019050613f67565b83811115613f91576000848401525b50505050565b60006002820490506001821680613faf57607f821691505b60208210811415613fc357613fc26140d2565b5b50919050565b613fd282614130565b810181811067ffffffffffffffff82111715613ff157613ff0614101565b5b80604052505050565b600061400582613f4b565b91507fffffffffffffffffffffffffffffffffffffffffffffffffffffffffffffffff82141561403857614037614074565b5b600182019050919050565b600061404e82613f4b565b915061405983613f4b565b925082614069576140686140a3565b5b828206905092915050565b7f4e487b7100000000000000000000000000000000000000000000000000000000600052601160045260246000fd5b7f4e487b7100000000000000000000000000000000000000000000000000000000600052601260045260246000fd5b7f4e487b7100000000000000000000000000000000000000000000000000000000600052602260045260246000fd5b7f4e487b7100000000000000000000000000000000000000000000000000000000600052604160045260246000fd5b6000601f19601f8301169050919050565b7f4e6f7420656e6f756768204e465473206c65667420746f207265736572766500600082015250565b7f455243373231456e756d657261626c653a206f776e657220696e646578206f7560008201527f74206f6620626f756e6473000000000000000000000000000000000000000000602082015250565b7f4552433732313a207472616e7366657220746f206e6f6e20455243373231526560008201527f63656976657220696d706c656d656e7465720000000000000000000000000000602082015250565b7f4f776e61626c653a206e6577206f776e657220697320746865207a65726f206160008201527f6464726573730000000000000000000000000000000000000000000000000000602082015250565b7f4552433732313a20746f6b656e20616c7265616479206d696e74656400000000600082015250565b7f4552433732313a207472616e7366657220746f20746865207a65726f2061646460008201527f7265737300000000000000000000000000000000000000000000000000000000602082015250565b7f4552433732313a20617070726f766520746f2063616c6c657200000000000000600082015250565b7f4e6f7420656e6f75676820657468657220746f207075726368617365204e465460008201527f732e000000000000000000000000000000000000000000000000000000000000602082015250565b7f4e6f7420656e6f756768204e465473206c656674210000000000000000000000600082015250565b7f43616e6e6f74206d696e7420737065636966696564206e756d626572206f662060008201527f4e4654732e000000000000000000000000000000000000000000000000000000602082015250565b7f4552433732313a206f70657261746f7220717565727920666f72206e6f6e657860008201527f697374656e7420746f6b656e0000000000000000000000000000000000000000602082015250565b7f4552433732313a20617070726f76652063616c6c6572206973206e6f74206f7760008201527f6e6572206e6f7220617070726f76656420666f7220616c6c0000000000000000602082015250565b7f4552433732313a2062616c616e636520717565727920666f7220746865207a6560008201527f726f206164647265737300000000000000000000000000000000000000000000602082015250565b7f4552433732313a206f776e657220717565727920666f72206e6f6e657869737460008201527f656e7420746f6b656e0000000000000000000000000000000000000000000000602082015250565b7f4552433732313a206d696e7420746f20746865207a65726f2061646472657373600082015250565b7f4e6f206574686572206c65667420746f20776974686472617700000000000000600082015250565b7f4552433732313a20617070726f76656420717565727920666f72206e6f6e657860008201527f697374656e7420746f6b656e0000000000000000000000000000000000000000602082015250565b7f4f776e61626c653a2063616c6c6572206973206e6f7420746865206f776e6572600082015250565b7f4552433732313a207472616e73666572206f6620746f6b656e2074686174206960008201527f73206e6f74206f776e0000000000000000000000000000000000000000000000602082015250565b7f4552433732314d657461646174613a2055524920717565727920666f72206e6f60008201527f6e6578697374656e7420746f6b656e0000000000000000000000000000000000602082015250565b7f4552433732313a20617070726f76616c20746f2063757272656e74206f776e6560008201527f7200000000000000000000000000000000000000000000000000000000000000602082015250565b50565b7f5472616e73666572206661696c65642e00000000000000000000000000000000600082015250565b7f4552433732313a207472616e736665722063616c6c6572206973206e6f74206f60008201527f776e6572206e6f7220617070726f766564000000000000000000000000000000602082015250565b7f455243373231456e756d657261626c653a20676c6f62616c20696e646578206f60008201527f7574206f6620626f756e64730000000000000000000000000000000000000000602082015250565b7f53616c65206973206e6f742063757272656e746c792061637469766521000000600082015250565b6147ae81613ee1565b81146147b957600080fd5b50565b6147c581613ef3565b81146147d057600080fd5b50565b6147dc81613eff565b81146147e757600080fd5b50565b6147f381613f4b565b81146147fe57600080fd5b5056fea2646970667358221220a98d136b8dc26567e793ffbfaeb4a16dd655d947fc5ae50ac6271b68064f147064736f6c63430008040033",
  "linkReferences": {},
  "deployedLinkReferences": {}
}